:100000000C9411050C9458050C9458050C94580543
:100010000C9458050C9458050C9458050C945805EC
:100020000C9458050C9458050C9408270C94DC2764
:100030000C94ED200C9458050C9458050C9458051C
:100040000C9458050C9458050C9458050C945805BC
:100050000C9458050C9444210C9458050C945805A4
:100060000C9458050C9458050C9458050C9458059C
:100070000C9458050C9458050C9458050C9458058C
:100080000C9458050C9458050C9458050C9458057C
:100090000C9458050C9458050C9458050C9458056C
:1000A0000C9458050C9458050C94580500003A001F
:1000B0003B003C003D0000005300380025022D00AD
:1000C0003E0024002500260000003F002100220001
:1000D00023002E0240001E001F00200000004100EF
:1000E000000049004C002800000001000100010050
:1000F00001000000010001000100010001000100F9
:1001000001000100000001000100010001000100E8
:1001100001000100010001000000010000000100D9
:1001200001000000000001000100010001000000CA
:1001300001000100010001000100010001000100B7
:1001400000000100010001000100010001000100A8
:10015000010001000000010000000100010000009A
:100160000000010001000100010000000100010089
:100170000100010001000100010001000000010078
:100180000100010001000100010001000100010067
:10019000000001000000010001000000444542553C
:1001A000473A2064697361626C65642E0A004445B5
:1001B0004255473A20656E61626C65642E0A000004
:1001C000000000000000002A2B28000000000000B2
:1001D0000000000000000000000029000000002CCA
:1001E0001E3420212224342627252E362D37382769
:1001F0001E1F202122232425263333362E37381F75
:100200000405060708090A0B0C0D0E0F1011121336
:100210001415161718191A1B1C1D2F3130232D35D4
:100220000405060708090A0B0C0D0E0F1011121316
:100230001415161718191A1B1C1D2F3130354C00B8
:1002400000000000000000000000000000000000AE
:10025000000000000000000000000000000000009E
:100260000000007E0F00D4FFFFFFC7000000780AE7
:100270000025303862003A200025303258000A72DA
:100280002F632030313233343536370A003F004394
:100290003E20004C25640A0074696D65725F7265CA
:1002A0006164333228293A202530346C580A006BB7
:1002B00065796D61705F636F6E6669672E6E6B72D4
:1002C0006F3A2025580A006B6579626F6172645F2E
:1002D00069646C653A2025580A006B6579626F6124
:1002E00072645F70726F746F636F6C3A2025580A86
:1002F00000686F73745F6B6579626F6172645F6CC5
:1003000065647328293A2025580A000A092D2053CC
:100310007461747573202D0A004743433A20382EC8
:10032000342E30204156522D4C4942433A20322E31
:10033000302E30204156525F415243483A20617678
:1003400072350A004F5054494F4E533A204C55468F
:10035000412045585452414B455920434F4E534F2D
:100360004C4520434F4D4D414E44204E4B524F2063
:10037000343039360A004255494C443A2020284A44
:10038000756C2032372032303231290A0056494408
:100390003A20307845454545284A616E206C756E97
:1003A000676529205049443A203078323031392865
:1003B0003362793229205645523A20307830303035
:1003C000310A000A092D2056657273696F6E202D5F
:1003D0000A000A092D20436F6E736F6C65202D0A89
:1003E0004553432F713A09717569740A000A092D42
:1003F000204D61676963202D0A443A09446562759E
:1004000067204D65737361676520546F67676C651E
:100410000A583A094D6174726978204465627567BB
:10042000204D6F646520546F67676C65202D2053E5
:10043000686F77206B657970726573736573206977
:100440006E206D617472697820677269640A4B3A34
:10045000094B6579626F617264204465627567203B
:10046000546F67676C65202D2053686F77206B652C
:10047000797072657373207265706F72740A4D3A89
:10048000094465627567204D6F75736520546F6709
:10049000676C650A563A0956657273696F6E0A533E
:1004A0003A095374617475730A433A094163746974
:1004B0007661746520436F6E736F6C65204D6F6459
:1004C000650A46312D4631303A09537769746368BD
:1004D00020746F204C6179657220302D39202846B8
:1004E0003130203D204C30290A302D393A095377DC
:1004F0006974636820746F204C6179657220302DB7
:10050000390A47524156453A09537769746368205E
:10051000746F204C6179657220302028616C74659D
:10052000726E617465290A423A094A756D702074C9
:100530006F20426F6F746C6F616465720A4553433C
:100540003A094A756D7020746F20426F6F746C6F3A
:10055000616465722028616C7465726E61746529CE
:100560000A453A095072696E7420454550524F4D04
:100570002053657474696E67730A42535041434552
:100580003A09436C65617220454550524F4D0A4E01
:100590003A094E4B524F20546F67676C650A000A48
:1005A000002575002E6E6B726F3A20000A002575CB
:1005B000002E737761705F6261636B736C61736847
:1005C0005F6261636B73706163653A20000A0025A6
:1005D00075002E737761705F67726176655F657312
:1005E000633A20000A002575002E6E6F5F677569FB
:1005F0003A20000A002575002E737761705F7261E2
:100600006C745F726775693A20000A002575002EC8
:10061000737761705F6C616C745F6C6775693A20A9
:10062000000A002575002E737761705F7263746C29
:100630005F726775693A20000A002575002E73778E
:1006400061705F6C63746C5F6C6775693A20000A57
:10065000002575002E636170736C6F636B5F746F40
:100660005F636F6E74726F6C3A20000A002575002C
:100670002E737761705F636F6E74726F6C5F63610E
:1006800070736C6F636B3A20000A0025303258009B
:100690006B65796D61705F636F6E6669672E7261FD
:1006A000773A20000A002575002E6D6F7573653A44
:1006B00020000A002575002E6B6579626F617264F7
:1006C0003A20000A002575002E6D61747269783A2F
:1006D00020000A002575002E656E61626C653A2067
:1006E000000A00253032580064656275675F636FE9
:1006F0006E6669672E7261773A20000A00257500E0
:1007000064656661756C745F6C617965723A20002E
:100710003F004E4B524F3A206F66660A004E4B52D6
:100720004F3A206F6E0A000A6D6F7573653A206F3D
:1007300066660A000A6D6F7573653A206F6E0A006F
:100740000A6B6579626F6172643A206F66660A00AF
:100750000A6B6579626F6172643A206F6E0A000AF3
:100760006D61747269783A206F66660A000A6D617D
:10077000747269783A206F6E0A000A646562756760
:100780003A206F66660A000A64656275673A206FF0
:100790006E0A000A0A4A756D70696E6720746F20D0
:1007A000626F6F746C6F616465722E2E2E20004331
:1007B0003E2000436C656172696E6720454550526A
:1007C0004F4D0A006565636F6E6669673A0A000AF5
:1007D000002530325820006B6579626F6172645F6A
:1007E0007265706F72743A20000A0025303258002A
:1007F0006B6579626F6172645F7365745F6C656469
:100800003A20004F6E6573686F743A2061637469B3
:1008100076653A2025640A0064656C5F6B65795FD4
:100820006269743A2063616E27742064656C3A20B3
:10083000253032580A006164645F6B65795F6269D4
:10084000743A2063616E2774206164643A20253015
:1008500032580A005B735D004B6579626F617264A8
:100860002073746172742E0A005B575D005B535DE8
:10087000005B525D005B445D005B435D000A033337
:1008800000620079003200000014034A0061006E2B
:100890000020006C0075006E006700650000000419
:1008A00003090409027B00040100A0FA0904000006
:1008B0000103010100092111010001224000070587
:1008C000810308000A090401000203000000092155
:1008D0001101000122220007058203200001070503
:1008E00003032000010904020001030000000921A4
:1008F00011010001226D000705840320000A09048C
:10090000030002030000000921110100012222005E
:1009100007058503200001070505032000011201DA
:10092000100100000008EEEE192001000102000194
:100930000631FF0974A1010975150026FF009520F5
:10094000750881020976150026FF0095207508912B
:1009500002C00660FF0961A1010962150026FF00BF
:100960009520750881020963150026FF0095207502
:10097000089102C005010980A101850319012AB768
:1009800000150126B700950175108100C0050C09FE
:1009900001A101850419012AA002150126A00295D2
:1009A0000175108100C005010906A1018505050733
:1009B00019E029E715002501950875018102050751
:1009C000190029EF1500250195F075018102050830
:1009D000190129059505750191029501750391018C
:1009E000C005010906A101050719E029E715002541
:1009F00001950875018102950175088101050719A6
:100A00000029FF150026FF009506750881000508DE
:100A1000190129059505750191029501750391014B
:100A2000C00011241FBECFEFDAE0DEBFCDBF04B699
:100A300003FE27C08091840290918502A0918602D6
:100A4000B09187028730904BA740B04BD1F4109201
:100A5000840210928502109286021092870214BEC0
:100A600084B7877F84BF0FB6F894A8958091600003
:100A7000886180936000109260000FBEE0E0F8E3B0
:100A8000099511E0A0E0B1E0E8E1F5E502C00590CC
:100A90000D92AE39B107D9F722E0AEE9B1E001C05D
:100AA0001D92A438B207E1F70E94C0230C94102ACB
:100AB0000C940000FF93EF93E0919E01F0919F0151
:100AC000309709F00995EF91FF910895FC01859108
:100AD000803011F0EFDFFBCF0895FF27E0E230E236
:100AE00047FF0CC0419597FF09C0EDE260957095F6
:100AF00080959095611D711D811D911D27FF02C07C
:100B0000219530E350E2AA27660F771F881F991FAF
:100B1000AA1FA41710F0A41B63955A95A9F7AA3031
:100B200008F0A95FA05DAF93F3956115710581058C
:100B3000910541F7ED3211F4EF93F395F21718F4A4
:100B40003F93F395FBCF8F91B5DFFA95E1F70895C9
:100B5000E991F9918591803021F0853219F0AADF71
:100B6000F9CF089520E0E89455915532C1F3503300
:100B700011F4689455915A3348F4505390F3220F6E
:100B8000022E220F220F200D250FF4CF0EF42195F7
:100B900089919991533619F3533729F1533559F106
:100BA000BC0188279927E8945C3621F489919991B2
:100BB00068945591543639F446EF7EF077FF0DC0B6
:100BC0008FEF9FEF0AC055374AE039F0583540E1C2
:100BD00021F0523642E009F00895FF93EF937DDF54
:100BE000EF91FF91B7CFFF93EF93FC01819180309C
:100BF000B9F360DFFBCFFF93EF9368DFF1CFDF93B3
:100C0000CF93CDB7DEB72596A3DFCF91DF910895BF
:100C1000811106C089EA611101C08AEA0E94261684
:100C200080E0089581E0089581E008950C94140611
:100C300008950C9418061F93CF93DF9300D000D033
:100C40000F92CDB7DEB749835A836B833091C401CD
:100C500089819A8131111DC06623B9F02223A9F040
:100C60000E94851D182F682F89819A810E942E1D50
:100C700069817A81812F0F900F900F900F900F90C4
:100C8000DF91CF911F910C94DC100E945C1D182FF6
:100C9000EFCF0E94851D69817A81EDCFFC01262F5F
:100CA000408151816281738184810C941B06CF93B2
:100CB000DF93EC0160E00E944E06BE01DF91CF9110
:100CC0000C9419068F929F92AF92BF92CF92DF92AF
:100CD000EF92FF920F931F936B017C0181E090E0F4
:100CE000A0E0B0E04C015D0104C0880C991CAA1C76
:100CF000BB1C4A95D2F7B501A4014C015D0104C0AB
:100D0000880C991CAA1CBB1C2A95D2F74829592982
:100D10006A297B2904C0880F991FAA1FBB1F0A9547
:100D2000D2F78A019B010C211D212E213F2104179E
:100D300015072607370789F48C299D29AE29BF2975
:100D4000BC01CD011F910F91FF90EF90DF90CF90EC
:100D5000BF90AF909F908F90089580959095A095AB
:100D6000B0958C219D21AE21BF21EACF0F93382F62
:100D7000262F6091110270911202809113029091BE
:100D80001402042F432F0E9462060F910C946C1CD6
:100D90000E944F0A0C94740A0C94770A08950E94DA
:100DA00098180E94CE062FEF84E39CE021508040EB
:100DB0009040E1F700C000000C9468210F931F934E
:100DC000CF93DF938C0161E00E944E06EC01B801E5
:100DD0000E94260F882309F43FC0B801CE010E946B
:100DE00016068823C9F1B801CE010E941312882388
:100DF00099F1B801CE010E946512882369F1B8010A
:100E0000CE010E948813882339F1F801828188235A
:100E100061F0CE3DFCE5DF07B9F170F4C115ECE5FA
:100E2000DE07C1F0C130DC45E9F0C801DF91CF91A8
:100E30001F910F910C941206CB358DE5D80751F117
:100E4000CC35EDE5DE0719F1CA35DD4571F70E94B5
:100E5000481EEBCF0E94CF0680E0DF91CF911F911B
:100E60000F91089590913E02892F8E7F90FF8160AF
:100E700080933E0280FF05C08EEA91E00E946605E5
:100E8000EBCF8CE991E0FACF0E94B61FE5CF0E942C
:100E90003F1ECBCF0E944B1EC8CFDF92EF92FF9236
:100EA0000F931F93CF93DF93E82FF0E0E154FE4FB1
:100EB000D490282F26952695269530E0F901E15A01
:100EC000FD4F0491877010E0082E02C0159507951C
:100ED0000A94E2F701701127F901E15BFD4FE490FC
:100EE000F12C082E02C0F594E7940A94E2F791E001
:100EF000E922FF24F901E15CFD4FC491D0E002C07A
:100F0000D595C7958A95E2F7C170DD2701151105C2
:100F100019F081EE0E949C15E114F10419F086EE9F
:100F20000E949C158D2D0E942616EF2819F086EE42
:100F30000E94E715012B19F081EE0E94E715CD2BD9
:100F400051F08CE2DF91CF911F910F91FF90EF90C4
:100F5000DF900C942616DF91CF911F910F91FF9097
:100F6000EF90DF900895EF92FF920F931F93CF932E
:100F7000DF93EC01162F0AE08881882309F454C01E
:100F8000813009F04EC08981813099F47E0122E0E0
:100F9000E20EF11C8A810E942616E7012196812F1C
:100FA000815050F3EFE9FFE03197F1F700C0000006
:100FB000F7CF823041F47E0182E0E80EF11C8A8195
:100FC0000E949C15EACF833041F47E01E2E0EE0EF0
:100FD000F11C8A810E94E715E0CF843011F0219640
:100FE000DDCF2A81229690E080E0AE014F5F5F4F17
:100FF0002053330B2A30310548F0019778F2EFE99E
:10100000FFE03197F1F700C00000F7CF089FB00173
:10101000099F700D1124C901860F971F2981EA01CC
:10102000E4CF0E944D07BACFDF91CF911F910F916E
:10103000FF90EF90089560E00C94B307829590E0E4
:101040009C01220F331F220F331F2C7C959587950F
:10105000959587958373282B30E0C901880F991FD8
:101060008A7A359527952575822B089508950C94D5
:10107000360881E008950C943908CF93C82F0E9458
:1010800037088C2FCF910C943B0890E080E00895B6
:101090000895FC01EE0FFF1FE159FD4F85919491DA
:1010A0000895CF93DF930E94DC100E945D09EC014C
:1010B000811520E5920708F041C0811530E49307BF
:1010C00008F0B4C0803E910518F5803C910508F009
:1010D0009DC0883A910570F4853A910508F08EC05C
:1010E00081309105F9F00097E9F00497D8F4D0E049
:1010F000C0E018C08F3B9105D0F7C85AD0E0CC0FA4
:10110000DD1FC35FDE4F0990D881C02DD4640AC0B3
:101110008115904258F4C11581E0D80718F4C83EF3
:10112000D10528F7CE01DF91CF910895C11590E345
:10113000D90708F071C0CE019F706AC0811525E5FE
:10114000920758F5811534E5930708F09EC0811584
:1011500042E5940750F4C11581E5D80708F469C049
:10116000DC2FCC27C16FD06ADDCF982F969596954E
:101170009E0123703327C115D34508F077C0C1E025
:10118000D0E002C0CC0FDD1F2A95E2F720E2929F4B
:10119000C0011124C82BD92B67C0C11589E5D80718
:1011A000A8F4C11598E5D90708F074C0C11526E563
:1011B000D20708F09CCF8C2F0E94F409C82FD0E0F2
:1011C000DC2FCC27CC27DF71D062ACCFC1153AE53C
:1011D000D30708F464C0CE0190568115904208F000
:1011E00086CF8D2F8F710E94F40990E0982F882769
:1011F00088279F719C012C2BE901E6CFC55AD0E0CE
:10120000C55CDE4FC881D0E0D0648CCF805C910992
:101210000E944908EC0186CFCE019927D3FF03C075
:10122000EC01D86C7FCFEC01D06C7CCFDF70D06A42
:1012300079CFCE01E4E096958795EA95E1F7837042
:101240002C2F26952695237090E2299F900111243A
:10125000382B8C2F8370C1E0D0E002C0CC0FDD1F93
:101260008A95E2F7C22BD32BDC685CCFC1E0D0E0DB
:1012700002C0CC0FDD1F2A95E2F730E2939FC00138
:101280001124C82BD92BDA684DCFD82FCC27C46FA7
:10129000D06A48CFDC2FCC27C06FD06A43CF8C2FC9
:1012A0008F700E94F40934E0D695C7953A95E1F71E
:1012B000CF709C2FEC01D06935CF82389105B1F108
:1012C000B0F48133910509F475C048F48932910571
:1012D00009F469C08A32910509F473C00895853311
:1012E000910509F459C08933910501F10895833EB0
:1012F0009105A9F138F4803E9105F9F0823E9105FF
:1013000049F10895863E9105A9F1873E9105C9F1FD
:10131000843E910519F52091660221FF1FC080913E
:10132000650284FD14C087EE90E008952091650267
:101330002370A1F080EE90E008952091650220FDD9
:1013400047C03091660230FF09C024FF44C090E0DE
:1013500080E004C02091650222FDF7CF089520911E
:10136000650222FD3BC03091660230FDE3CF24FFD1
:10137000F5CFEDCF2091650223FFF0CF24FDE7CF1D
:10138000D2CF2091650223FD2CC03091660231FF3F
:10139000EECF84EE90E008952091650225FFDECF28
:1013A00089E290E008952091650225FFD7CF85E37B
:1013B00090E008952091650226FFD0CF8AE290E068
:1013C00008952091650226FFC9CF81E390E008953A
:1013D00089E390E0089583EE90E0089582EE90E036
:1013E000089586EE90E008959091650292FF06C000
:1013F000282F28712830F9F4877F846093FF06C076
:10140000282F28712831F1F4877E846120916602AB
:1014100020FF06C0382F38713830D9F4877F8160BB
:1014200021FF06C0282F28712831D1F4877E8161E1
:1014300094FD877E0895282F24712430F9F68B7F40
:101440008860DCCF282F2471243101F78B7E8861DE
:10145000DDCF382F3171313019F78E7F8860E0CFC2
:10146000282F2171213121F78E7E8861E1CF0C94E4
:10147000000F0E94140B8FE39CE90197F1F700C065
:1014800000000E94140B80E00E94790A80FF04C0D3
:101490000E94370A0C94682108950C94390A0E941E
:1014A000111F811102C00E94B61F0E941C1F809351
:1014B0003E020E94241F90936602809365020E9460
:1014C0004D0A0E94201F682F70E090E080E00E948B
:1014D000301C609111027091120280911302909160
:1014E00014020C946A1C08950C94730A08950C94C9
:1014F000760AE82FF0E0E359FD4F80810895CF92FE
:10150000DF92EF92FF920F931F93CF93DF938EE7BB
:1015100092E00E9466058DE6E82E82E0F82ED0E08B
:10152000C0E099E7C92E92E0D92E01E712E0DF93DF
:10153000CF93DF92CF920E94FF0586E792E00E9450
:101540006605F70181917F010E941E081F928F930B
:101550001F930F930E94FF058FE692E00E9466059D
:1015600021968DB79EB708960FB6F8949EBF0FBE12
:101570008DBFC630D105D9F6DF91CF911F910F9164
:10158000FF90EF90DF90CF90089580EA8A95F1F771
:10159000089500C008950C94C50AF894E82FE295C8
:1015A000EF70F0E031A1282F2F7081E090E001C0B2
:1015B000880F2A95EAF7982F9095932391A392A1EB
:1015C000892B82A37894089583E30E94CD0A81E356
:1015D0000E94CD0A87EF0E94CD0A86EF0E94CD0AB5
:1015E00085EF0E94CD0A84EF0E94CD0A86E30E9417
:1015F000CD0A86E60E94CD0A84E90E94CD0A80E9E0
:101600000E94CD0A81E90E94CD0AE7E6F2E0ADE64C
:10161000B2E011921D9282E0ED36F807D1F786E034
:101620000E948B0B0C94C806CF92DF92EF92FF9230
:101630000F931F93CF93DF93C3E4D1E007E612E04B
:10164000D12CEE24E394F12C8991F894E82FE295C3
:10165000EF70F0E021A18F70A70102C0440F551F69
:101660008A95E2F7CA01922F982B91A392A18095B7
:10167000892382A378940E94C90AEEE3F1E030E066
:1016800020E0C12C4191A42FA295AF70B0E09096BC
:101690008C9190E04F7002C0959587954A95E2F73E
:1016A00080FD35C08E2D022E01C0880F0A94EAF706
:1016B000C82A2F5F3F4F2530310521F7FE013197B2
:1016C00080810E94CD0A0E94CB0AF8018081C81651
:1016D00001F1C08281E0D82A0F5F1F4FF1E0C934C9
:1016E000DF0709F0B1CF2D2D46E06DE672E087E609
:1016F00092E00E948C0B0E94CC068D2DDF91CF9141
:101700001F910F91FF90EF90DF90CF90089580E0B0
:10171000CFCF80E0E0CF0895FF920F931F93CF9338
:10172000DF93F82E092F162FD72FC42F222349F02D
:1017300081E08093A2010E941D219093A1018093DA
:10174000A0018091A2018823A1F08091A001909135
:10175000A1010E943521069760F0EF2DF02FA12FF7
:10176000BD2FCE0FDF2FD11DEC17FD0741F41092D6
:10177000A201DF91CF911F910F91FF900895819168
:101780008D93F2CFCF93C82F1F928F9383E992E06E
:101790009F938F930E94FF0561E070E080E090E0EE
:1017A00004C0660F771F881F991FCA95D2F70E9441
:1017B000301C0F900F900F900F90CF910C949818B1
:1017C000CF93DF93EBEFE80FEF3308F040C2F0E088
:1017D000EE5EF54D0C94AD2984EC97E00E94660511
:1017E00080E097E00E9466050E94201F1F928F9361
:1017F0008DEF96E09F938F930E94FF058BEF96E00D
:101800000E9466050E941C1FC82F88EE96E00E9469
:1018100066051F92CF9383EE96E09F938F930E946D
:10182000FF0581EE96E00E94660587ED96E00E9436
:1018300066058C2F81701F928F9384ED96E09F93A5
:101840008F930E94FF0582ED96E00E94660588EC6A
:1018500096E00E946605C1FB882780F91F928F934E
:1018600085EC96E09F938F930E94FF0583EC96E0B2
:101870000E94660587EB96E00E946605C2FB8827FA
:1018800080F91F928F9384EB96E09F938F930E9431
:10189000FF0582EB96E00E94660589EA96E00E94C9
:1018A0006605C3FBCC27C0F91F92CF9386EA96E06A
:1018B0009F938F930E94FF0584EA96E00E9466053D
:1018C0000E94241FEC0180E996E00E946605DF93E8
:1018D000CF938BE896E09F938F930E94FF0589E852
:1018E00096E00E94660580E796E00E9466058C2FD0
:1018F00081701F928F938DE696E09F938F930E9445
:10190000FF058DB79EB780960FB6F8949EBF0FBEA9
:101910008DBF8BE696E00E94660584E596E00E9406
:101920006605C1FB882780F91F928F9381E596E0B9
:101930009F938F930E94FF058FE496E00E946605B7
:101940008DE396E00E9466058D2F81701F928F9324
:101950008AE396E09F938F930E94FF0588E396E0C9
:101960000E94660586E296E00E946605D695D170D3
:101970001F92DF9383E296E09F938F930E94FF056F
:1019800081E296E00E9466058FE096E00E9466057F
:10199000C2FB882780F91F928F938CE096E09F937B
:1019A0008F930E94FF058AE096E00E94660588EF0B
:1019B00095E00E946605C3FB882780F91F928F93EC
:1019C00085EF95E09F938F930E94FF0583EF95E04D
:1019D0000E94660589EE95E00E946605C4FB882793
:1019E00080F91F928F9386EE95E09F938F930E94CC
:1019F000FF0584EE95E00E94660582ED95E00E9469
:101A00006605C5FB882780F91F928F938FEC95E0C0
:101A10009F938F930E94FF058DEC95E00E946605D1
:101A200081EB95E00E946605C6FB882780F91F922E
:101A30008F938EEA95E09F938F930E94FF058DB759
:101A40009EB780960FB6F8949EBF0FBE8DBF8CEAEE
:101A500095E00E94660584EA95E00E946605C7FB52
:101A6000CC27C0F91F92CF9381EA95E09F938F9383
:101A70000E94FF058FE995E00E9466050F900F9088
:101A80000F900F9081E01CC083EB97E00E946605E9
:101A90000E94B61FF7CF8DEE93E00E946605F2CF4D
:101AA00080913E02807F80933E0282ED93E00E940F
:101AB00066058FEA97E00E94660581E08093A301A6
:101AC000DF91CF91089583E997E00E9466050E9417
:101AD000CF06D8CF90913E02892F8E7F90FF8160F4
:101AE00080933E0280FF03C087E897E0D6CF8AE765
:101AF00097E00E94660580913E02817F80933E02BE
:101B0000C1CF90913E02892F8D7F91FF826080939B
:101B10003E0281FF08C08DE697E00E946605809135
:101B20003E028160EBCF8FE597E0B7CF90913E0208
:101B3000892F8B7F92FF846080933E0282FF03C0D7
:101B400080E597E0EACF80E497E0A7CF90913E024E
:101B5000892F877F93FF886080933E0283FF03C0B5
:101B600084E397E0DACF87E297E097CF83EC93E0C6
:101B70000E9466058DE893E00E94660586E793E083
:101B80000E94660584E493E00E94660589E193E083
:101B900084CF8BE093E00E9466050E94B7131F92EA
:101BA0008F9381EF92E09F938F930E94FF05809126
:101BB0000C011F928F938AED92E09F938F930E9466
:101BC000FF05809164021F928F9387EC92E09F93B0
:101BD0008F930E94FF058091650287FB882780F91B
:101BE0001F928F938FEA92E09F938F930E94FF053D
:101BF0000E9429219F938F937F936F9388E992E0AE
:101C00009F938F930E94FF058DB79EB746960FB6A0
:101C1000F8949EBF0FBE8DBF35CF0E94981890914B
:101C20006502892F97FB87F980588093650287FFAB
:101C300003C08DE197E031CF82E197E02ECF80E0C5
:101C40000E94C20B1FCF8953FBCF8D51F9CF80E18A
:101C500097E00E94660580E033CF80E008950C9401
:101C60002D0ECF93C82F8091A301882331F08130AE
:101C700099F01092A30180E00DC00E944E1E8232A6
:101C8000D1F78C2F0E942D0E811119C08C2F0E942C
:101C9000E00B8170CF9108950E944E1E823289F32D
:101CA0008C2F0E942F0E811119C0C431C9F050F43D
:101CB000CB3061F08DE892E00E94660513C081E0B0
:101CC00090E0E7CFC93261F0C833A1F782ED93E02D
:101CD0000E9466058FE892E00E94660581E0D9CFF8
:101CE0001092A30180E0D5CF0C9408066E98769AE6
:101CF00024982C9A8CB186FB882780F91C9905C002
:101D000090E0892B8093A601089592E0FACFE091AC
:101D1000A601EE0FEE0FE093A6014CB146FB88271B
:101D200080F943B144FB222720F944FF02C022E09E
:101D300030E0822BE82BE093A601EF70F0E0E75B48
:101D4000FE4F80819091A501890F8093A50120E02D
:101D5000823054F08091A4018F5F8093A40160E0F1
:101D600080E00E94740E21E08091A5018F3F54F421
:101D70008091A40181508093A40161E080E00E94E1
:101D8000740E21E08091A501082E000C990B62E0F1
:101D900070E00E9499298093A501822F089583E223
:101DA00090E00E94CE29813289F484E290E00E9482
:101DB000CE29873059F485E290E00E94CE2991E047
:101DC000873209F090E0892F8170089580E0FCCF80
:101DD000CF93C82F6FEF811161E283E290E00E9400
:101DE000DC296FEFC11167E084E290E00E94DC29FA
:101DF0006FEFC11167E285E290E0CF910C94DC298E
:101E000080E00E94E80E0C940B1F089586E290E09B
:101E10000E94CE29682F70E090E080E0089586E26D
:101E200090E00C94DC290E94050F0E94CF0E8111D6
:101E30000CC060E070E0CB010E940F0F0E945610B2
:101E40000E94401181E00C94E80E0895CF93FB01AD
:101E5000C281CC2309F19C0122513F45203131053B
:101E600020F582510E945011C0E08C2FCF9108952F
:101E700081E00E94921C43E062E081E00E94B6068D
:101E8000F3CF81E00E94B31C43E062E081E00E9456
:101E9000B606EBCF82E0F6CF8031FFE59F0789F3EE
:101EA00081319F45B9F3C1E0E0CF8031EFE59E0776
:101EB000F9F281319F45C9F682E0DBCF2FEFFC01BB
:101EC00020830895EF92FF920F931F93CF93DF9398
:101ED000EC01062FE881E150E33108F05EC0F0E04C
:101EE000EF5AF54D0C94AD29198289E08A83602F51
:101EF000CE01DF91CF911F910F91FF90EF900C9445
:101F0000FC218981823069F0833071F08130D9F40D
:101F10000E9429210E94B3296A837B838C839D833D
:101F2000E6CF0E94060FF6CF7E0182E0E80EF11C9C
:101F300010E0812F0E94790AF70181937F011F5FD2
:101F40001630B9F7D4CF602FCE010E945E0FCFCFED
:101F500089818230C1F76A817B818C819D810E9459
:101F6000B3290E940F0FC3CF4B816A8189810E94E0
:101F700028109827892798279D838C83B8CF2C8198
:101F80003D813227232732274B816A8189810E9434
:101F90004110ADCF0E945610AACF8FEF8883A7CFF4
:101FA0000E94E9108983A3CF0E94EB10982789270C
:101FB00098279A8389839BCF6B8170E089819A816E
:101FC000AE014C5F5F4F9827892798270E94EE103B
:101FD0008ECF6B8170E089819A81AE014C5F5F4F3B
:101FE0009827892798270E94151181CF0E944011B8
:101FF0007ECF0E941610D6CF6B8170E089819A81C6
:10200000AE014C5F5F4F9827892798270E948E105A
:102010006ECF6B8170E089819A81AE014C5F5F4F1A
:102020009827892798270E94B31061CF84E00895EC
:1020300050E0440F551F9AE0699F400D511D112437
:102040009CE3899F400D511D1124CA018796089574
:102050000F931F93CF93DF930E9418108C010E945F
:10206000CE29C82FD0E0DC2FCC27C80101960E94D2
:10207000CE299E01282BC901DF91CF911F910F918D
:1020800008950F931F93CF93DF93122F032F0E9476
:102090001810EC01602F0E94DC29612FCE010196FF
:1020A000DF91CF911F910F910C94DC29AF92BF92D9
:1020B000CF92DF92EF92FF921F93CF93DF938CEA40
:1020C000C82E80E0D82ED0E07601C0E014C0F50123
:1020D00025913491412F6C2F8D2F0E94411082E069
:1020E000A80EB11C1F5F153091F78AE0E80EF11CB5
:1020F000CF5FC63019F0570110E0E9CFDF5F8CE306
:10210000C80ED11CD43001F7DF91CF911F91FF9001
:10211000EF90DF90CF90BF90AF900895EF92FF9235
:102120000F931F93CF93DF93EC018A017C01E60E9E
:10213000F71ECE018796CE15DF0539F4DF91CF91DA
:102140001F910F91FF90EF900895C03FD10540F48B
:102150000E94CE29F80180830F5F1F4F2196E9CF9F
:10216000F8011082F9CFCF92DF92EF92FF920F9396
:102170001F93CF93DF937C016A018C01060F171F19
:10218000EC01CE018796C017D10749F4DF91CF91BA
:102190001F910F91FF90EF90DF90CF900895C03F77
:1021A000D10540F4FE01EE19FF09EC0DFD1D608123
:1021B0000E94DC292196E5CF462F843038F4763012
:1021C00028F4653018F4672F0C94281090E080E014
:1021D000089580E1089589EE92E00895EF92FF92CC
:1021E0000F931F93CF93DF93EC018A017C01E60EDE
:1021F000F71ECE01895E9E4FCE15DF0539F4DF91C3
:10220000CF911F910F91FF90EF900895C93E22E06A
:10221000D20740F40E94CE29F80180830F5F1F4F40
:102220002196E7CFF8011082F9CFCF92DF92EF929B
:10223000FF920F931F93CF93DF937C016A018C0170
:10224000060F171FEC01CE01895E9E4FC017D10704
:1022500049F4DF91CF911F910F91FF90EF90DF90A4
:10226000CF900895C93E22E0D20740F4FE01EE1956
:10227000FF09EC0DFD1D60810E94DC292196E3CF52
:10228000CF93DF93C7E1D1E060E0CE010E94DC296B
:102290002196C11584E0D807B9F7DF91CF91089551
:1022A000DF92EF92FF920F931F93CF93DF9300D0B3
:1022B00000D0CDB7DEB7F82E8FE08F1540F08FEF4E
:1022C00093E00E94CE2907E111E08823C1F00F902E
:1022D0000F900F900F90DF91CF911F910F91FF9072
:1022E000EF90DF900895011584E0180781F3C8018D
:1022F0000E94CE29811101C0FA940F5F1F4FF11087
:10230000F2CF19821A821B821C82DD24D3947801B9
:102310008FEFE81AF80AC8010E94CE2989831A8231
:102320008823A9F29FEF980F933078F48A83D9829B
:102330000E5F1F4FC7010E94CE298B83882339F27D
:10234000CE0101960E941B08E2CF8701F9CF0F93BF
:102350001F93CF93DF93C42FD22FFC018281882358
:10236000C9F04093A9010E941D219093A801809378
:10237000A70180E28C0F883008F050C0C77081E060
:1023800001C0880FCA95EAF7DF91CF911F910F9195
:102390000C942E161091A901141335C08091A70139
:1023A0009091A8010E943521883C910560F5C0E21A
:1023B000CD0F1D17B9F080E2810F883040F41770FF
:1023C00081E001C0880F1A95EAF70E943516C830DF
:1023D00048F481E09D2F977001C0880F9A95EAF725
:1023E0000E942E16802F0E942616C830B8F4D7708F
:1023F00081E001C0880FDA95EAF7DF91CF911F9154
:102400000F910C94351680E28C0F883038F4C77029
:1024100081E001C0880FCA95EAF7EFCFDF91CF9135
:102420001F910F9108950F939C01CB01233F4CE521
:10243000340759F1A8F4283DFCE53F0701F1293D97
:102440004CE53407D1F1273D3C4591F406E221EEFD
:1024500041EE67ED7CE50E94A71180E00F910895A1
:10246000253FFCE53F07E9F0B0F0263F3C45F9F099
:10247000FC018281882339F11092A901EFCF07E294
:1024800025EE45EE68ED7CE5E6CF06E221EE40EE76
:1024900063EF7CE5E0CF07E225EE44EE64EF7CE5F8
:1024A000DACF06E221EE42EE65EF7CE5D4CF07E21B
:1024B00025EE46EE66EF7CE5CECF08E221E045EE64
:1024C00069ED7CE5C8CF81E0C9CFCF93DF93EC0104
:1024D000FB018281882309F419C1C230FCE5DF07C2
:1024E000C0F1C6319CE5D90730F09E012A5F3C451A
:1024F0002930310570F50E94241F90936602809365
:102500006502C031ECE5DE0709F4CFC008F05BC01E
:10251000C8308CE5D80709F4B6C088F5C430ECE5BE
:10252000DE0709F4A8C0C0F4C2308CE5D80709F46E
:102530009CC0809165028260C330DC4509F498C07C
:1025400080916502909166020E94321F0E94981845
:1025500080E0DF91CF910895809165028061C6305F
:10256000ECE5DE0709F484C0809165028860C7301D
:10257000DC4508F47DC080916502806279C0CC3072
:102580008CE5D80709F489C070F4809165028C60ED
:10259000CA30ECE5DE0709F46BC008F478C080911E
:1025A00065028E7F65C0CE308CE5D80709F479C00E
:1025B000809165028B7FCF30DC4508F459C0809153
:1025C00065028F7E55C0CB3FECE5DE0709F457C0AE
:1025D00030F5C3318CE5D80709F46FC078F4C13108
:1025E000ECE5DE0709F465C0C231DC4509F0A8CF8F
:1025F0000E949818809165028F773AC0C5318CE5AA
:10260000D80709F462C008F476C080916602816040
:10261000CA3FDC4509F094CF8093660291CFCF3F4B
:10262000FCE5DF0709F44DC088F4809166028D7FD8
:10263000CD3F9CE5D90781F3809166028E7FCE3F26
:10264000DC4550F3809166028360E6CFC130FDE542
:10265000DF0709F459C008F444C080E0C230DD450A
:1026600009F06ECF0E94B81F6BCF80916502816028
:102670008093650265CF809165028460F9CF809177
:1026800066028260C9CF809165028064F1CF0E94AA
:102690009818809165028068EBCF809165028D7FEC
:1026A000E7CF80916502877FE3CF809165028F7DC0
:1026B000DFCF809165028F7BDBCF80916502837FC6
:1026C000D7CF809166028C7FA7CF8091650282FB75
:1026D000992790F921E0922790FB82F990FB83F9EA
:1026E000C7CF80916602982F909591708E7F892B2D
:1026F00090FB81F991CF0E94981890916502892FE3
:1027000097FB87F98058B4CF81E0ACCF81E021CF2F
:10271000CF93DF93EB0186319C4511F50E944E1E4D
:102720009A81992399F08A7A91E009F490E0909344
:10273000AA01811109C089E20E94F51D0E949E1E16
:1027400080E0DF91CF91089585E3F6CF8091AA01D3
:10275000811104C089E20E94FC1DF0CF85E3FBCF0C
:1027600081E0EFCF9093B0018093AF010895E091A5
:10277000AF01F091B001309721F00190F081E02D90
:10278000099480E00895EF92FF920F931F93CF93E7
:10279000DF93EC01E091AF01F091B001309709F4C3
:1027A00046C080910C01882341F08091650287FF2B
:1027B00004C08881898385E088830280F381E02DCD
:1027C000CE01099580913E0282FF31C080FF04C096
:1027D00087ED97E00E94660510E000E081EDE82EAD
:1027E00087E0F82E80913E0280FF0EC0FE01E00FD0
:1027F000F11F80811F928F93FF92EF920E94FF053D
:102800000F900F900F900F900F5F1F4F0830110522
:1028100049F780913E0280FF0AC08FEC97E0DF917C
:10282000CF911F910F91FF90EF900C946605DF916F
:10283000CF911F910F91FF90EF9008952091AD01DE
:102840003091AE012817390771F09093AE01809353
:10285000AD01E091AF01F091B001309721F0068019
:10286000F781E02D099408952091AB013091AC01DE
:102870002817390771F09093AC018093AB01E09178
:10288000AF01F091B001309721F00084F185E02D87
:10289000099408950E9429216093C0017093C10199
:1028A0008093C2019093C3016093BC017093BD01FA
:1028B0008093BE019093BF0108950E9429216093E7
:1028C000C0017093C1018093C2019093C3016093D2
:1028D000B8017093B9018093BA019093BB01089538
:1028E00085B7806885BF85B7806885BF08950895DE
:1028F00008950C94771408950C947B140E9470141E
:102900008EE593E20E9479210E9478140C94791448
:1029100081E008950C948814089508950E948C1401
:102920000C948D140E9414210E94E40A0E94130F3B
:102930000E94760E0C947C14CF93C82F80913E0297
:1029400082FF1EC080FF1CC080EF97E00E946605DA
:1029500080913E0280FF14C01F92CF938BEE97E0D0
:102960009F938F930E94FF0580913E020F900F90DE
:102970000F900F9080FF04C089EE97E00E946605DB
:102980008C2FCF910C943D08AF92BF92CF92DF92E3
:10299000EF92FF920F931F93CF93DF93CDB7DEB7E4
:1029A0002A970FB6F894DEBF0FBECDBF0E94140B5E
:1029B00081110E944A1482EBA82E81E0B82E10E00B
:1029C00000E0C02E802F0E94790AE82EF501F190D8
:1029D0005F01F81609F451C080913E0281FD0E940A
:1029E0007F0A8F2D8E25D12CFF24F394982F9F21C1
:1029F00009F43EC00E948A14882399F0DE82CF82B7
:102A0000EF2081E009F480E088870E941D21816029
:102A1000782F9A8789874E815F8168858A850E9491
:102A20006515F801EE54FE4F8081F826F0820E9471
:102A3000870E81110E945D140E94B7139091B1011D
:102A4000891791F10E94B7138093B1012A960FB6AE
:102A5000F894DEBF0FBECDBFDF91CF911F910F91D4
:102A6000FF90EF90DF90CF90BF90AF900C949C14AC
:102A7000D394FF0CF5E0DF12B9CF0F5F1F4F063084
:102A8000110509F09ECF8FEF89838A831B820E94F4
:102A90001D218160782F9D838C8349815A816B81B0
:102AA0008D810E946515C3CF2A960FB6F894DEBFBC
:102AB0000FBECDBFDF91CF911F910F91FF90EF908F
:102AC000DF90CF90BF90AF900895DF92EF92FF928A
:102AD0000F931F93CF93DF93CDB7DEB72B970FB62E
:102AE000F894DEBF0FBECDBF7A878B87F42E052FFB
:102AF000162FE72ED82E61110E946E1E1E821D8297
:102B00007E2DEC82DD824F2D502F612F8D2D9E81E9
:102B10002B960FB6F894DEBF0FBECDBFDF91CF91DD
:102B20001F910F91FF90EF90DF900C940E1BFC0112
:102B3000808191810C94C71DCF93C82F882309F4FD
:102B400044C08CEF8C0F813AC8F48C2F0E94310E58
:102B500081113BC06C2F80910001909101010E9476
:102B6000D11F882329F08C2F0E94FC1D0E949E1EDD
:102B70008C2F0E94F51DCF910C949E1E80E28C0F2D
:102B8000883048F4C77081E001C0880FCA95EAF721
:102B90000E94511EF0CFEBE5EC0FE33040F4F0E083
:102BA000E957FE4F808190E0CF910C941E14C85AD3
:102BB000C73158F4EC2FF0E0EE0FFF1FE75AFE4F3D
:102BC00080819181CF910C943414CF910895882302
:102BD00029F19CEF980F913A20F40E94FC1D0C946F
:102BE0009E1E90E2980F983050F4877091E001C0DB
:102BF000990F8A95EAF7892F0E94571EF0CF9BE51F
:102C0000980F933020F490E080E00C941E14885AC2
:102C1000873120F490E080E00C94341408951F93E1
:102C2000CF93DF93182FEB010E949C15209731F46E
:102C3000812FDF91CF911F910C94E7158FE99FE0D1
:102C40000197F1F700C000002197F0CF70E060E03D
:102C5000893311F460E570E00C940F16882321F09D
:102C60000E94511E0C949E1E0895882321F00E94FC
:102C7000571E0C949E1E0895BF92CF92DF92EF9242
:102C8000FF920F931F93CF93DF936C01D62FC72F23
:102C9000FC011281058102950F700E94131EE82E1F
:102CA0008823A1F0E12E112389F08C2F807F8034BE
:102CB00029F080E28D0FE12C883040F082E00E9404
:102CC000EF1E0E94131E91E0E82EE926BC2EB2945E
:102CD0009FE0B922EB2DF0E0EC59F54D0C94AD29B5
:102CE0000C2F0F70C07F11F00295007F1123A9F007
:102CF000002359F080E28D0F883010F0D11109C007
:102D0000802F0E94511E0E949E1E8D2F0E949C1596
:102D100014C0802F0E94611EF6CF8D2F0E94E715F0
:102D2000002359F080E28D0F883010F0D1112CC0B3
:102D3000802F0E94571E0E949E1E2B2D2850330B61
:102D40002430310520F40E94B7130E943D08EE2084
:102D500009F493C10E940F1E80FD8FC1F6011282FB
:102D60000E94091E0E94921CC6010E945E180E94C9
:102D7000091EDF91CF911F910F91FF90EF90DF908F
:102D8000CF90BF900C94B31C802F0E94671ED3CFAE
:102D9000FC2FFF70FF2EC07FC03219F0F29480EF3D
:102DA000F822DD2369F0D13049F1112391F100239C
:102DB00051F1F601858180FFA8CF8F70858323C0F4
:102DC000112381F0011106C00E94811E8F290E94EB
:102DD0002E16B3CF0130C1F70E94811E8F290E94A9
:102DE000871EABCF011106C00E94941E8F2D0E943A
:102DF0003516A3CF013009F4A0CFF6CF112329F067
:102E0000063008F09ACF8F2DE2CF053008F095CF2D
:102E1000EDCF002359F3D93349F4FFEF27EE33E028
:102E2000F15020403040E1F700C000008D2F0E949B
:102E3000E71583CF8C2F86958695837069F0813056
:102E400009F07BCF8D2F9C2F9370111102C090E061
:102E500080E00E94341471CF8D2F9C2F937011113C
:102E600002C090E080E00E941E1467CF8C2F837018
:102E700009F041C0111161CF4D2F42954695477021
:102E8000440F440F0D2F0F7010E030E020E0042EAF
:102E900004C0000F111F221F331F0A94D2F760E0F5
:102EA00070E0CB01D4FF0FC06FE070E080E090E0F5
:102EB00004C0660F771F881F991F4A95D2F7609547
:102EC000709580959095C695C695C370602B712BB3
:102ED000822B932BC23049F058F4C13019F00E9474
:102EE000441C2BCF0E94321C28CF0E94561C25CF99
:102EF0000E94301C22CF8695112311F08C2F8170F7
:102F0000882309F41ACF4D2F429546954770440FF8
:102F1000440F0D2F0F7010E030E020E0042E04C0AD
:102F2000000F111F221F331F0A94D2F760E070E0D8
:102F3000CB01D4FF0FC06FE070E080E090E004C0F0
:102F4000660F771F881F991F4A95D2F76095709575
:102F500080959095C695C695C370602B712B822B7A
:102F6000932BC23049F058F4C13019F00E94091D6A
:102F7000E4CE0E94F71CE1CE0E941B1DDECE0E9413
:102F80006C1CDBCECF70112329F08C2F0E94921C79
:102F90008D2F1DCF8D2F0E9435168C2F0E94B31CB4
:102FA000CCCED23F89F160F4D03FC9F0D13F29F1B6
:102FB000112309F442C00111A8CE8C2F8F7121C0BA
:102FC000D33F39F1D43FA1F7112369F1CF718C2F91
:102FD0000E94921C63E08C2F0E94D41EAECE11235F
:102FE00041F0053008F0A9CE8C2F8F710E94D61CBD
:102FF000A4CE063008F0A1CEF7CF8C2F8F7111230D
:1030000069F20E94921C99CE8C2F8F711123C9F303
:10301000C5CF112329F08C2F8F710E947D1C8DCE7E
:103020000E94781C8ACE81E00E94EF1E023008F4D4
:1030300084CE82E00E94EF1E80CE002359F0D93367
:1030400009F0F4CE8FEF97EEE3E081509040E0403E
:10305000E1F7EACE8C2F8F71A1CF4C2F4F706D2FDF
:10306000C6010E9445080E94A81B67CE4C2F4F70D6
:103070006D2FC6010E94480860CEDF91CF911F914D
:103080000F91FF90EF90DF90CF90BF9008950F9336
:103090001F93CF93DF93EC01688179818A810E942D
:1030A000D11D8C010E942D1D0E942F1CB801CE0144
:1030B000DF91CF911F910F910C943C16CF93DF932A
:1030C000EC018B819C81892B29F08881998189234E
:1030D0008F3F59F4DF91CF910895CE010E94471898
:1030E000CE01DF91CF910C945706CE010E94DE06EF
:1030F0008111F3CF0E94131E882361F38A818823F4
:1031000049F382E0DF91CF910C94EF1E90E080E0D4
:103110000E941E1490E080E00E9434140E946E1EF3
:103120000E947E1E0C949E1E0E94031E0C94861804
:103130000E945E1E0C949418E92FE295EF70E25005
:10314000EE3070F4F0E0EC58F54D0C94AD29803F72
:1031500019F020F4883E20F481E00895843FE1F3E3
:1031600080E00895883EC0F3813FD1F7F5CF93FB0F
:10317000882780F908950E94C71D0C949C18CF934E
:10318000DF9300D000D00F92CDB7DEB70F900F9035
:103190000F900F900F90DF91CF910895CF93DF9311
:1031A00000D000D000D0CDB7DEB726960FB6F89489
:1031B000DEBF0FBECDBFDF91CF9108951F93CF9398
:1031C000DF93C091C50116E08091C6018C1304C045
:1031D000DF91CF911F910895D0E01C9FF0011D9FBA
:1031E000F00D1124E953FE4F4081518162817381BA
:1031F000848195810E94CE182196C770E5CF4091B9
:10320000F7015091F8016091F9017091FA018091F4
:10321000FB019091FC010C94CE181F93CF93DF9388
:103220008091FC01807FA9F48091F901882389F0C5
:103230008091C501C091C6016091F7017091F801BC
:10324000A091FA01B091FB01D62FD72316E0C81345
:1032500004C0DF91CF911F91089590E0109711F075
:10326000DF3F19F401968770F2CF189F9001199FE4
:10327000300D1124F901E953FE4F41814713F2CF7C
:1032800040814613EFCF42814111ECCF43815481FD
:103290004A1B5B0B483C510528F78091FC018F705D
:1032A00080618093FC01F901E453FE4F80818F70AF
:1032B0008061808387EF91E00E945E18DF91CF915B
:1032C0001F910C94DE18AF92BF92CF92DF92EF92D3
:1032D000FF920F931F93CF93DF93CDB7DEB7619724
:1032E0000FB6F894DEBF0FBECDBF8C0185E0F801AC
:1032F000DE011D9601900D928A95E1F7F80140815B
:103300005181E28087EFC82E81E0D82E6091FA01CA
:103310007091FB016115710509F461C19091F7018C
:103320002091F801892F82238F3F09F458C1A3808F
:10333000B480F090F901F501E61BF70BFF2009F4CA
:10334000FCC08091FC01382F307FE83CF10508F08B
:10335000B2C0311179C0FE2C251323C0941321C0B3
:10336000E1101FC08F7080618093FC010E94FF18E4
:10337000C6010E945E188091FC01F80185838F2DA3
:1033800061960FB6F894DEBF0FBECDBFDF91CF912F
:103390001F910F91FF90EF90DF90CF90BF90AF9073
:1033A0000895AB2829F0842F85238F3F09F033C17E
:1033B00080E0F82FF170DF2E80FF3CC08091C501C6
:1033C0002091C60136E0821315C04D875E878D853A
:1033D0009E850E94C71D292F22952F702230F0F064
:1033E000243018F59F70F1F0F8019581907FD1F4A9
:1033F000D12C1EC090E0389FF001399FF00D1124B0
:10340000E953FE4F6181651306C06081641303C0F8
:1034100062816E110FC001968770D5CF9F7011F039
:10342000882331F3805E883018F3C8010E945E184B
:10343000FD2CA5CFEE2009F4A2CF8091FC01816084
:103440008093FC01F12C9BCF251306C0941304C07C
:10345000F801EE2009F48DC04D875E878D859E852D
:103460000E94BB18882319F1EE2009F18091FC011C
:10347000803270F02091F7013091F80138872F8366
:103480001986BB86AA868C87CE0107960E945E1895
:1034900086E0F801A7EFB1E001900D928A95E1F77F
:1034A0000E940D190E94FF18FF24F39468CFC801F1
:1034B0000E945E18F9CF311113C07A2DB98AA88AFB
:1034C0006E2D89890E94BF1887EF91E00E945E18D7
:1034D00086E0F60111928A95E9F70E94FF18B2CFB3
:1034E00025130FC094130DC0E1100BC0F8018583A4
:1034F000C8010E945E1886E0F60111928A95E9F7EC
:103500003ECF4D875E878D859E850E94BB188823A0
:1035100071F2EE2061F28091FC01803208F4B8CFA4
:103520002091F7013091F8013A8329831B82BD82F3
:10353000AC828E83CE010196A9CFE83CF10508F05C
:1035400041C0FE2CEE2009F4B2CF25132AC09413FB
:1035500028C08091FC0180FD1BC0982F907FC1F096
:10356000F8018583903F31F0982F907F905F8F70A6
:10357000892B8583C8010E945E1886E0F801A7EFB9
:10358000B1E001900D928A95E1F70E94FF18F7CE05
:1035900086E0F801A7EFB1E001900D928A95E1F77E
:1035A000EECE4D875E878D859E850E94BB1881116A
:1035B0006FCF8091FC0181608093FC01C8010E9463
:1035C0005E18DDCE7A2DB98AA88A6E2D89890E946F
:1035D000BF1886E0F60111928A95E9F7D6CFEE2062
:1035E00009F465CF4D875E878D859E850E94BB1847
:1035F000F82E882309F45BCF86E0F801A7EFB1E04D
:1036000001900D928A95E1F787EF91E00E9497155E
:103610000E940D19BACF81E08E25CBCE1F93CF9398
:10362000DF93CDB7DEB72C970FB6F894DEBF0FBE91
:10363000CDBF4F83588769877A878B879C87CE0158
:1036400007960E946319882369F08A859B85892BD8
:1036500039F04F815885842F85238F3F09F071C041
:1036600016E05FC086E0FE013796DE0111960190FC
:103670000D928A95E1F78A859B85892B89F38F8145
:10368000988589238F3F61F32091C60130E0C901FD
:103690000196877099274091C5014817190671F462
:1036A0000E9498181092C6011092C50186E0E7EFBB
:1036B000F1E0DF011D928A95E9F7D2CF96E0929F63
:1036C000D001939FB00D1124A953BE4FFE01319636
:1036D00001900D929A95E1F78093C6010E94DE1841
:1036E000BFCF819FC001112489539E4F0E9463194F
:1036F0008823E9F0E091C5011E9FF0011124E953F0
:10370000FE4F4081518162817381848195810E9445
:10371000CE188091C50190E001968770992780931B
:10372000C5018091C5019091C6018913DACF2C960D
:103730000FB6F894DEBF0FBECDBFDF91CF911F91C2
:10374000089569857A858B859C850E94CE1888CFDF
:10375000EF92FF920F931F93CF93DF938C01892BEE
:1037600081F0F12CEE24E394E8012196F801849194
:10377000843770F4843008F05FC08130B1F082305B
:10378000A1F1DF91CF911F910F91FF90EF900895DC
:10379000853709F44CC008F43DC09CE7980F90377A
:1037A00080F78F770E94E71549C00E5F1F4FFE011B
:1037B000849190E2980F983060F48770FE2D01C0DC
:1037C000FF0F8A95EAF78F2F0E94711E0E949E1E9E
:1037D00002C00E949C158F2D815030F2EFE9FFE06E
:1037E0003197F1F700C00000F7CF0E5F1F4FFE01C9
:1037F000849190E2980F983050F48770FE2D01C0AC
:10380000FF0F8A95EAF78F2F0E94771EDFCF0E9465
:10381000E715E1CF0E5F1F4FFE01C491C150D8F2F2
:103820008FE99FE00197F1F700C00000F7CF0E5F2E
:103830001F4FFE01F490CFCF0E949C158E01CBCF7D
:1038400008950C94201C0E94211C60931502709313
:10385000160280931702909318020C94861808950C
:103860000C94231C0F931F930091150210911602C4
:103870002091170230911802602B712B822B932B11
:103880001F910F910C94231C0F931F93009115020D
:1038900010911602209117023091180260237123B3
:1038A000822393231F910F910C94231C0F931F933A
:1038B0000091150210911602209117023091180202
:1038C00060277127822793271F910F910C94231C47
:1038D0000C94201C0C94681C0E946A1C60931102BA
:1038E0007093120280931302909314020C94861822
:1038F00060E070E0CB010C946C1C0F931F9341E0CF
:1039000050E060E070E08A019B0104C0000F111FCD
:10391000221F331F8A95D2F7C901B8011F910F9159
:103920000C946C1C0F931F9341E050E060E070E03A
:1039300004C0440F551F661F771F8A95D2F78091E8
:10394000110290911202A0911302B09114028A0107
:103950009B01082B192B2A2B3B2BC901B8011F9166
:103960000F910C946C1C0F931F9341E050E060E0AA
:1039700070E004C0440F551F661F771F8A95D2F769
:10398000CB01BA01609570958095909500911102D8
:1039900010911202209113023091140260237123BE
:1039A000822393231F910F910C946C1C0F931F93F0
:1039B00041E050E060E070E004C0440F551F661F16
:1039C000771F8A95D2F78091110290911202A091EF
:1039D0001302B09114028A019B01082719272A2794
:1039E0003B27C901B8011F910F910C946C1C0F93D8
:1039F0001F93009111021091120220911302309135
:103A00001402602B712B822B932B1F910F910C941E
:103A10006C1C0F931F9300911102109112022091C0
:103A200013023091140260237123822393231F9188
:103A30000F910C946C1C0F931F9300911102109125
:103A400012022091130230911402602771278227FD
:103A500093271F910F910C946C1C0895E92FEE0F82
:103A6000EE0F9E0F890F982F977041E001C0440F11
:103A70009A95EAF786958695869595E0899FF00157
:103A80001124E350FE4F30E020E070E05191DF015F
:103A90001197CB01022E02C0969587950A94E2F702
:103AA000817081958527842385278C932F5F3F4FD5
:103AB0002530310559F70895E92FEE0FEE0F9E0FCF
:103AC000890F982F977086958695869525E0829F19
:103AD000F0011124E350FE4F50E040E080E02191DE
:103AE00030E0092E02C0369527950A94E2F721703E
:103AF0003327042E01C0220F0A94EAF7822B4F5F6E
:103B00005F4F4530510559F70895BF92CF92DF922C
:103B1000EF92FF920F931F93CF93DF938C01C0908E
:103B20001102D0901202E0901302F09014028091E2
:103B3000150290911602A0911702B0911802C82A9E
:103B4000D92AEA2AFB2ACFE1D0E0BC2ED701C60150
:103B50000C2E04C0B695A795979587950A94D2F731
:103B600080FD0EC0219788F7B12C8B2DDF91CF916E
:103B70001F910F91FF90EF90DF90CF90BF9008952D
:103B8000B8018C2F0E945108019761F3EECFCF93BB
:103B9000DF93EC010E94851DBE01DF91CF910C9453
:103BA00051081F93CF93DF93EB019091C4019923A8
:103BB00031F0CB01DF91CF911F910C94C71D882369
:103BC00079F0CB010E94851D182F682FCE010E942D
:103BD0002E1DBE01812FDF91CF911F910C945108B2
:103BE000CB010E945C1D182FF4CF682F809100013B
:103BF000909101010C947320682F809100019091A5
:103C000001010C947E2080910001909101010C949F
:103C100089208091190285958595859508958091D3
:103C200019028770089590911902977081E009F444
:103C300080E00895CF93C82F8091660282FB992778
:103C400090F99C17D1F0C0FB82F9809366028091B5
:103C50006502909166020E94321F80913E0280FFB1
:103C60000CC01F92CF9383E098E09F938F930E94A4
:103C7000FF050F900F900F900F90CF9108958091B6
:103C8000660282FB882780F991E089270C941A1E2E
:103C900081E00C941A1E80E00C941A1E80913D0263
:103CA000089590913D02892B80933D02089580955F
:103CB00090913D02982390933D02089510923D0209
:103CC000089590913C02892B80933C020895809541
:103CD00090913C02982390933C02089510923C02EC
:103CE000089590913B02892B80933B020895809523
:103CF00090913B02982390933B02089510923B02CF
:103D0000089580911A02089508950C94841E90914C
:103D1000660292FD08C090911A02981721F08093D4
:103D20001A020C94851E089580911A02882329F0A6
:103D300010921A0280E00C94851E0895E091000113
:103D4000F091010180913D028083E0910001F091AA
:103D50000101808190913C02892B8083E0910001D8
:103D6000F0910101808190913B02892B8083909199
:103D70001A02992381F0E0910001F0910101808104
:103D8000892B808380910001909101010E94BD1FC9
:103D900081110E94941E80910001909101010C9468
:103DA000C31308950C94D11E9091660292FD10C029
:103DB00098E0899F90011124622B609319020E9460
:103DC000921C809119028595859585950C94D21E3B
:103DD0000C94921C1092190280E00C94D21E9091C7
:103DE00019028095892380931902282F277039F4AE
:103DF000282F082E000C330B9217130621F49091F4
:103E0000660292FF07C08595859585950E94B31C33
:103E10000C94EA1E08956FEF7FEF90E080E00C9421
:103E2000FA2990E080E00E94D62921E08A3E9E4F48
:103E300009F020E0822F089582E090E00C94CE29D2
:103E400083E090E00C94CE29CF9384E090E00E9430
:103E5000CE29C82F82E290E00E94CE29982F8C2F85
:103E6000CF910895CF93C92F682F84E090E00E94EE
:103E7000DC296C2F82E290E0CF910C94DC29AB011D
:103E8000BC018FE090E00C94EE29AB01BC0183E112
:103E900090E00C94EE2960E070E0CB010C94451F9B
:103EA00060E070E0CB010E943F1F0C944B1F6AEE54
:103EB0007EEF90E080E00E94FA2960E082E090E0EE
:103EC0000E94DC2960E083E090E00E94DC291092EF
:103ED000150210921602109217021092180260E05A
:103EE00084E090E00E94DC2960E082E290E00E94A1
:103EF000DC2960E085E090E00E94DC2960E086E05B
:103F000090E00E94DC296FEF87E090E00E94DC29BE
:103F100040E050E0BA0188E090E00E94EE2960E0C5
:103F20008DE090E00E94DC2940E050E0BA0188E199
:103F300090E00E94EE2960E087E190E00E94DC2999
:103F400040E050E0BA018CE190E00E94EE2970E080
:103F500060E080E290E00E94FA2940E050E0BA017F
:103F600088E190E00E94EE290C94501F0C94571F9A
:103F7000682F8EE090E00C94DC29FC013296809151
:103F80000C01882321F0809165029EE187FF96E075
:103F900080E0915008F4089521912223D1F38F5F9E
:103FA000F8CF662301F120910C012223F1F020913A
:103FB000650227FF1AC0462F4695469546954E3115
:103FC00090F4677021E030E002C0220F331F6A9541
:103FD000E2F7840F911DFC01828190E028233923B0
:103FE00081E0232B69F480E00895FC013296089665
:103FF0002191261721F0E817F907D1F7F4CF81E0D6
:1040000008959C01FC0132969FEF80E04191461794
:1040100051F09F3F19F4411101C0982F8F5F8630F6
:10402000A9F79F3F09F40895290F311D97FD3A958F
:10403000F90162830895FC013296089621912613B6
:1040400003C0DF0111971C92E817F907B9F708952B
:10405000E62FE695E695E695EE3170F4E80FF92F38
:10406000F11D677021E030E001C0220F6A95EAF788
:104070008281822B8283089580913E0280FF0CC052
:104080001F926F9386E398E09F938F930E94FF05A2
:104090000F900F900F900F900895E62FE695E695FC
:1040A000E695EE3178F4E80FF92FF11D677021E005
:1040B00030E001C0220F6A95EAF72095828128231B
:1040C0002283089580913E0280FF0CC01F926F935F
:1040D00088E198E09F938F930E94FF050F900F90C7
:1040E0000F900F90089520910C01222329F0209128
:1040F000650227FD0C9428200C94012020910C01CE
:10410000222329F02091650227FD0C944D200C9468
:104110001B20FC01329680910C01882351F0809184
:10412000650287FF06C08EE1DF011D928A95E9F7DF
:10413000089586E0F9CF089508950C949C2080910D
:104140007B02843049F10E949D2080E00E943D085E
:1041500010923F0288E190E020E40FB6F894A89511
:10416000809360000FBE2093600083B7817F8460DE
:1041700083BF83B7816083BF7894889583B78E7F30
:1041800083BF0FB6F894A8958091600088618093F2
:104190006000109260000FBE08950895CF930E94B2
:1041A0009B200E94140B0E94CD20C0E08C2F0E9407
:1041B000790A811105C0CF5FC630C1F7CF9108954C
:1041C00081E0FCCF08950C94E2200E9498180E9490
:1041D000B7130E943D080C94E3201F921FB61F9254
:1041E00011248F939F93AF93BF9380913F028111CE
:1041F00013C08091730290917402A0917502B091E6
:1042000076024196A11DB11D8093730290937402B2
:10421000A0937502B0937602BF91AF919F918F9159
:104220001F901FBE1F90189582E084BD93E095BD3E
:104230009AEF97BD80936E0008952FB7F894809100
:10424000730290917402A0917502B09176022FBF13
:1042500008952FB7F8946091730270917402809161
:104260007502909176022FBF08959C014FB7F89484
:104270008091730290917402A0917502B0917602C0
:104280004FBF821B930B089578941F921FB61F9205
:1042900011248F939F93AF93BF938091730290915A
:1042A0007402A0917502B09176020196A11DB11D14
:1042B0008093730290937402A0937502B093760278
:1042C000BF91AF919F918F911F901FBE1F90189526
:1042D00087E797E7909301088093000888E19AE0C8
:1042E0000FB6F894A895809360000FBE909360007D
:1042F000FFCF90939F0180939E0108958091630268
:1043000008950895CF93DF9300D00F92CDB7DEB715
:1043100090917B02943011F589837B836A8390931B
:10432000E9008FEF9091E800815095FD06C095ED72
:104330009A95F1F700008111F5CF8091E80085FF93
:104340000DC050E040E063E070E0CE0101960E94B5
:10435000AE248091E8008E778093E8000F900F9054
:104360000F90DF91CF910895BC0184E00C948221DD
:10437000BC0183E00C948221CF93DF93EC01809108
:104380000C018823B1F18091650287FF32C060E2A1
:1043900084E08093E9008FEF9091E800815095FDD3
:1043A00006C095ED9A95F1F700008111F5CF809147
:1043B000E80085FF1BC080910C0170E050E040E0F8
:1043C000811104C050E040E068E070E0CE010E943E
:1043D000AE248091E8008E778093E80080E2FE01B1
:1043E000A3E4B2E001900D928A95E1F7DF91CF91BD
:1043F000089568E081E0CDCFCF93FC01603221F5D4
:1044000080917B02843001F5C091E900CF7020914A
:10441000EC00922F917020FD90E8C92B82E08093F0
:10442000E9008091E80080FF0CC050E040E060E2CD
:1044300070E0CF010E94AE248091E8008E778093D7
:10444000E800CF70C093E900CF91089589E798E024
:104450000E94660580917A02811109C00E948D2612
:104460000E94EA268091E20084608093E200089531
:1044700085E798E00E94660510927A02089581E728
:1044800098E00C9466058DE698E00C94660589E644
:1044900098E00C946605209141022F5F822F62E321
:1044A0000E948D29992319F02093410208951092BA
:1044B0004102809142028823F1F080917B02843096
:1044C000C1F49091E9009F702091EC00822F8170DF
:1044D00020FD80E8892B95E09093E9009091EB0016
:1044E00090FF04C09091EE0097FD08C08F708093FC
:1044F000E9001092420208951092F1009091E800B4
:1045000095FDFACF9091E80090FFF0CF9091E800F0
:104510009E779093E800EACF42E061EC81E00E9450
:10452000092642E261EC84E00E94092642E261EC45
:1045300082E00E94092642E260EC83E00E940926A4
:1045400042E261EC85E00C94092680917D02833083
:1045500009F461C030F48130D1F1823009F49DC09A
:1045600008958A3009F489C08B3009F46FC089300E
:1045700009F050C080917C02813209F04BC08091DB
:10458000800290918102009719F0029709F042C0D1
:104590008091E800877F8093E8008091E80082FFA7
:1045A00035C09091F3008091F200029729F4809138
:1045B000F1008B7F813021F48091F10080936302C0
:1045C0008091E8008B778093E8000C943D268091E1
:1045D0007C02813AF9F48091E800877F8093E800BB
:1045E0008091800290918102892B61F460E283E4E2
:1045F00092E070E00E944C258091E8008B778093D8
:10460000E800089560E090E080E0F3CF80917B02C5
:104610008111C3CF089580917C02813AD9F78091AE
:10462000800290918102892BA9F78091E800877F11
:104630008093E8008091E80080FFFCCF80910C011E
:104640008093F1008091E8008E77BDCF80917C024D
:10465000813201F78091800290918102892BD1F6FD
:104660008091E800877F8093E8000E943D2680913A
:104670007E0280930C010C94981880917C02813208
:1046800049F68091E800877F8093E8000E943D26EC
:1046900080917F0280936402089580917C02813A28
:1046A00009F0B8CF8091E800877F8093E80080917F
:1046B000E80080FFFCCF80916402C2CF9FB7F894DE
:1046C000109242029FBF90917B02943009F048C043
:1046D0002091E9002F703091EC00932F917030FD04
:1046E00090E8922B25E02093E9002091EB0020FF39
:1046F00034C02091EE0027FF30C0209140022223D9
:1047000021F02091E80025FF28C01092400226E009
:104710003091E80035FF14C08093F1008091E800EB
:1047200085FD27C08091E80080FFFCCF8091E800E4
:104730008E778093E8009F709093E90080E0089561
:1047400030917B02343049F43091EB0035FD05C0E7
:10475000215041F481E0809340029F709093E900E2
:104760008FEF0895EFE9FFE03197F1F700C0000007
:10477000CFCF8FB7F89421E0209342028FBFDBCFD9
:10478000CDB7DEB7A0970FB6F894DEBF0FBECDBF92
:1047900084B7877F84BF0FB6F894A8958091600096
:1047A000886180936000109260000FBE80E890E006
:1047B0000FB6F89480936100909361000FBE0E9441
:1047C0007E140E948D260E94EA268091E200846079
:1047D0008093E20078940E9472290E94921482E0F1
:1047E00091E00E94B21388E598E00E94660513E00C
:1047F00080917B02853051F484E598E00E94660543
:1048000080917B02853059F00E94E5200E94C414FB
:1048100080917B02843091F00E948E14E9CF0E9437
:104820009F2080917902882359F30E94CE2088230B
:1048300039F30E9498240E949818E2CF1093E9005F
:104840008091E80082FFE8CF8091E80090E085FF4A
:1048500009C050E040E060E270E0CE0101960E94A5
:10486000FD2491E08091E8008B778093E800992304
:1048700099F260E2CE0101960E94620FCDCF0C94B6
:104880004124292F33272330310521F168F42130C9
:10489000310509F443C02230310509F444C090E0E9
:1048A00080E030E020E026C02132310551F1223293
:1048B0003105A9F76430710590F7FB01EE0FFF1F7A
:1048C000E257FE4F2081318166577E4FFB01808188
:1048D00090E010C099278130910581F0009729F070
:1048E0000297E9F6EDE7F8E002C0EFE9F8E084911D
:1048F00090E09F01FA01318320830895E9E8F8E010
:10490000F6CF6430710558F6660F771FFB01EA5643
:10491000FE4F2081318189E090E0ECCF82E190E090
:104920002EE139E0E7CF8BE790E023EA38E0E2CFF1
:1049300080E189BD82E189BD09B400FEFDCF80918F
:10494000D8008F7D8093D8008091E00082608093B2
:10495000E0008091E00081FDFCCF0895AF92BF920E
:10496000CF92DF92FF920F931F93CF93DF936C014F
:10497000EB018A010E945C26F82E811123C00115EB
:10498000110539F0F80180819181C81BD90BC80E3F
:10499000D91EB12CA12C2097A9F08091E80085FDAB
:1049A00022C08091E8008E778093E8000115110500
:1049B000A1F0F80180819181A80EB91EB182A08278
:1049C00085E0F82E8F2DDF91CF911F910F91FF90F1
:1049D000DF90CF90BF90AF9008950E945C2688230F
:1049E000D1F2F82EEFCFF60181916F018093F100A3
:1049F0002197FFEFAF1ABF0ACECFAF92BF92CF92EF
:104A0000DF92FF920F931F93CF93DF936C01EB0123
:104A10008A010E945C26F82E811123C00115110520
:104A200039F0F80180819181C81BD90BC80ED91EBD
:104A3000B12CA12C2097A9F08091E80085FD22C01F
:104A40008091E8008B778093E80001151105A1F0B3
:104A5000F80180819181A80EB91EB182A08285E003
:104A6000F82E8F2DDF91CF911F910F91FF90DF9046
:104A7000CF90BF90AF9008950E945C268823D1F21A
:104A8000F82EEFCF8091F100F60181936F0121970D
:104A9000FFEFAF1ABF0ACECFFC0180918202909146
:104AA000830286179707A0F06115710529F490918C
:104AB000E8009E779093E80090E06115710551F44D
:104AC000911108C08091E80082FF34C080E0089511
:104AD000BC01F2CF80917B028823C1F18530C1F106
:104AE0008091E80083FD30C08091E80082FDEACF2C
:104AF0008091E80080FFE1CF8091F3002091F200E7
:104B0000382F6115710519F02830310558F091E002
:104B10002830310509F090E02091E8002E772093AD
:104B2000E800CBCF81918093F100615071092F5F34
:104B30003F4FE7CF80917B02882341F0853041F0E1
:104B40008091E80083FFBECF81E0089582E0089560
:104B500083E00895FC018091820290918302861780
:104B60009707A0F06115710529F48091E8008E7710
:104B70008093E80090E06115710551F4911108C02F
:104B80008091E80082FF35C080E00895BC01F2CF3B
:104B900080917B028823C9F18530C9F18091E800BA
:104BA00083FD31C08091E80082FDEACF8091E8006A
:104BB00080FFE1CF8091F3002091F200382F611542
:104BC000710519F02830310558F091E02830310591
:104BD00009F090E08091E8008E778093E800CBCFD9
:104BE00084918093F1003196615071092F5F3F4F9E
:104BF000E6CF80917B02882341F0853041F080919F
:104C0000E80083FFBDCF81E0089582E0089583E04E
:104C10000895982F973028F08F708093E90081E0F5
:104C200008959093E900242F762F50E0981731F0E3
:104C30007091EC002091ED005091F00021FD02C038
:104C40009F5FE8CF3091EB003E7F3093EB003091D7
:104C5000ED003D7F3093ED003091EB0031603093FB
:104C6000EB007093EC002093ED005093F000209146
:104C7000EE0027FDE5CF80E0089580917C0287FF5C
:104C800013C08091E80082FF06C08091E8008B7716
:104C90008093E80004C080917B028111F2CF0895D7
:104CA00080917B028823D9F38091E80080FFF8CFC0
:104CB0008091E8008E77ECCF2091E4003091E50000
:104CC00095E6A9012091EC00822F817020FF06C09B
:104CD0008091E80080FF06C080E008952091E80000
:104CE00022FD1AC080917B02882389F0853089F0EB
:104CF0008091EB0085FD0FC02091E4003091E5002C
:104D000042175307F9F29150E1F684E0089582E0EA
:104D1000089583E0089581E008950E94FB260E9493
:104D20000327E0EEF0E0808181608083E8EDF0E031
:104D300080818F77808319BCA7EDB0E08C918E7F46
:104D40008C9380818F7E808310927A0208950F93D6
:104D50001F93CF93DF930E94FB260E940327C8ED89
:104D6000D0E088818F778883888180688883888174
:104D70008F7D888319BC10927B021092770210926B
:104D800079021092780200EE10E0F80180818B7FAA
:104D9000808388818160888342E060E080E00E94B7
:104DA0000926E1EEF0E080818E7F8083E2EEF0E084
:104DB000808181608083808188608083F801808128
:104DC0008E7F8083888180618883DF91CF911F915E
:104DD0000F910895E8EDF0E080818F7E8083E7ED0C
:104DE000F0E080818160808384E082BF81E08093F5
:104DF0007A020C94A726E8EDF0E080818E7F808314
:104E00001092E20008951092DA001092E1000895E5
:104E10001F920F920FB60F9211242F933F934F932F
:104E20005F936F937F938F939F93AF93BF93EF9312
:104E3000FF938091E10082FF0BC08091E20082FF2E
:104E400007C08091E1008B7F8093E1000E944B229C
:104E50008091DA0080FF19C08091D80080FF15C0D2
:104E60008091DA008E7F8093DA008091D90080FFF4
:104E700096C080E189BD82E189BD09B400FEFDCF05
:104E800081E080937B020E9426228091E10080FFD6
:104E900019C08091E20080FF15C08091E2008E7FF2
:104EA0008093E2008091E20080618093E200809133
:104EB000D80080628093D80019BC85E080937B0283
:104EC0000E9443228091E10084FF2BC08091E20088
:104ED00084FF27C080E189BD82E189BD89B5982F13
:104EE000917080FFFBCF8091D8008F7D8093D80098
:104EF0008091E1008F7E8093E1008091E2008F7EBF
:104F00008093E2008091E20081608093E2008091D2
:104F10007702882309F449C084E080937B020E94D1
:104F200047228091E10083FF29C08091E20083FF46
:104F300025C08091E100877F8093E10082E080932B
:104F40007B02109277028091E1008E7F8093E100D6
:104F50008091E2008E7F8093E2008091E200806188
:104F60008093E20042E060E080E00E9409268091A8
:104F7000F00088608093F0000E943F22FF91EF9143
:104F8000BF91AF919F918F917F916F915F914F9161
:104F90003F912F910F900FBE0F901F90189519BC45
:104FA00010927B020E94382270CF8091E30087FD2F
:104FB00093E090937B02B3CF1F920F920FB60F92A4
:104FC00011242F933F934F935F936F937F938F930E
:104FD0009F93AF93BF93CF93DF93EF93FF93D091C2
:104FE000E900DF708091EC00C82FC17080FDC0E83F
:104FF0001092E9008091F000877F8093F000789410
:105000000E9420281092E9008091F000886080932F
:10501000F000CD2BCF70C093E900FF91EF91DF91AD
:10502000CF91BF91AF919F918F917F916F915F9140
:105030004F913F912F910F900FBE0F901F90189599
:105040001F93CF93DF93CDB7DEB7AA970FB6F8942F
:10505000DEBF0FBECDBF8CE792E02091F100FC01D6
:105060002193CF01F2E084389F07B9F70E94A5226F
:105070008091E80083FF1EC180917C0290917D02A7
:105080009A3008F017C1E92FF0E0EE57F54D0C9477
:10509000AD29803899F0823809F00CC180918002E6
:1050A0008F70873008F006C18093E9008091EB0093
:1050B00085FB882780F91092E90006C0809178026C
:1050C00090917902911182609091E800977F90937E
:1050D000E8008093F1001092F1008091E8008E7753
:1050E000E5C0882309F4D3C0823009F0E3C0809181
:1050F0007E028111D6C0809180028F702FEF280F21
:10510000263008F0D7C08093E9002091EB0020FF03
:10511000C8C0933031F48091EB0080628093EB0043
:10512000C0C09091EB0090619093EB0021E030E0E3
:1051300001C0220F8A95EAF72093EA001092EA0054
:105140008091EB008860EACF8111B4C010917E029B
:105150001F778091E3008078812B8093E30080911A
:10516000E800877F8093E8000E943D268091E80058
:1051700080FFFCCF8091E30080688093E30082E0B1
:10518000111183E080937B0295C08058823008F033
:1051900091C080917E0290917F028C3D23E0920726
:1051A000A1F583E08A838AE289834FB7F894DE0110
:1051B000139620E03EE051E2E32FF0E050935700D9
:1051C000E49120FF03C0E295EF703F5FEF708E2FF8
:1051D00090E0EA30C0F0C7968D939D932F5F243105
:1051E00059F74FBF8091E800877F8093E8006AE21B
:1051F00070E0CE0101960E944C258091E8008B77EB
:105200008093E80057C0C096E7CF6091800270910C
:105210008102AE014F5F5F4F0E943F24BC01892B8A
:1052200009F448C09091E800977F9093E800898145
:105230009A810E94AA25E1CF8038E1F58091E800AB
:10524000877F8093E800809177028093F10045CFBB
:10525000811130C090917E02923060F58091E8001B
:10526000877F8093E800909377020E943D2680918B
:105270007702882311F084E005C08091E30087FD68
:10528000FACF81E080937B020E948C2213C0809130
:105290007E02813079F481E0933009F080E08093E0
:1052A00079021092E9008091E800877F8093E800FE
:1052B0000E943D268091E80083FF0AC08091E800AB
:1052C000877F8093E8008091EB0080628093EB0001
:1052D000AA960FB6F894DEBF0FBECDBFDF91CF9177
:1052E0001F910895CF9380917B028823A1F0C091F4
:1052F000E900CF709091EC00892F817090FD80E8DB
:10530000C82B1092E9008091E80083FD0E942028BC
:10531000CF70C093E900CF910895991B79E004C044
:10532000991F961708F0961B881F7A95C9F78095E4
:10533000089597FB072E16F4009407D077FD09D047
:105340000E94BA2907FC05D03EF4909581959F4FA5
:105350000895709561957F4F0895EE0FFF1F05909A
:10536000F491E02D099469279627692778278727E4
:1053700078270895AA1BBB1B51E107C0AA1FBB1FBA
:10538000A617B70710F0A61BB70B881F991F5A95D1
:10539000A9F780959095BC01CD010895F999FECFAC
:1053A00092BD81BDF89A992780B50895A8E1B0E033
:1053B00042E050E00C94022A262FF999FECF92BDCC
:1053C00081BDF89A019700B4021639F01FBA20BDCA
:1053D0000FB6F894FA9AF99A0FBE08950396272FFC
:1053E0000E94DD290E94DC29252F0E94DD29242F1F
:1053F0000C94DD290196272F0E94DD290C94DC29CD
:10540000DC01CB01FC01F999FECF06C0F2BDE1BD84
:10541000F89A319600B40D9241505040B8F7089573
:10542000F894FFCF630D500D6A0DEC0B270E270E7D
:105430004B0D270E270E960D270EA60D0D0E270ECF
:10544000270E270E270EC90D270E270EB60D270E85
:10545000810D270E270E250E250E250E250E250E55
:10546000250E250E250E250E1F0E270E630D440D4D
:10547000270E270E270E270E270E270E270E270E84
:10548000270E270E1F0E270E270E4B0D270E230E5D
:10549000230E230E230E230E230E230E230E230E84
:1054A0001F0E740F810FA80FB40FBF0FCA0FCD0FBF
:1054B000CD0FCD0FCD0FCD0FD00FD40FDC0FE90FD7
:1054C000F60FF90FFC0F091070167016C816C816E3
:1054D0001A179D169D169D163617C217D117D1178C
:1054E0002D189D169D163618A718A718B018B018B5
:1054F000B218B018B018B018A718A718B718B01875
:10550000B018B718492871285A2971285A29A4288F
:08551000C5285A291C2928298D
:105518001B027E21BC218121B821B42101E200E9CE
:1055280000EA00B500B600B700CD008301CC008AC0
:105538000192019401210223022402250226022756
:10554800022A02B300B4006F0070008182833666BD
:105558009490913331F7F6F5F400FF010001000053
:10556800FFFF0000010001FF00E200E900EA00B5CA
:1055780000B600B700CD008301CC008A01920194E7
:10558800012102230224022502260227022A02B34D
:1055980000B4006F00700081828340226D22E1090F
:0E55A800520974093009B508CE08EE0807094B
:00000001FF
